S017000066696E6765727072696E746C6F636B2E73726563BC
S11300003CC2000059C2000057C2000055C20000A3
S113001053C2000051C200004FC200004DC2000094
S11300204BC2000049C2000047C2000045C20000A4
S113003043C2000041C200003FC200003DC20000B4
S11300403BC2000039C2000037C2000035C20000C4
S113005033C2000031C200002FC200002DC20000D4
S11300602BC2000029C2000027C2000025C20000E4
S113007023C2000021C200001FC200001DC20000F4
S11300801BC2000019C2000017C2000015C2000004
S113009013C2000011C200000FC200000DC2000014
S11300A00BC2000009C2000007C2000005C2000024
S11300B003C2000001C20000FFC10000FDC1000036
S11300C0FBC10000F9C10000F7C10000F5C1000048
S11300D0F3C10000F1C10000EFC10000EDC1000058
S11300E0EBC10000E9C10000E7C10000E5C1000068
S11300F0E3C10000E1C10000DFC10000DDC1000078
S1130100DBC10000D9C10000D7C10000D5C1000087
S1130110D3C10000D1C10000CFC10000CDC1000097
S1130120CBC10000C9C10000C7C10000C5C10000A7
S1130130C3C10000C1C10000BFC10000BDC10000B7
S1130140BBC10000B9C10000B7C10000B5C10000C7
S1130150B3C10000B1C10000AFC10000ADC10000D7
S1130160ABC10000A9C10000A7C10000A5C10000E7
S1130170A3C10000A1C100009FC100009DC10000F7
S11301809BC1000099C1000097C1000095C1000007
S113019093C1000091C100008FC100008DC1000017
S11301A08BC1000089C1000087C1000085C1000027
S11301B083C1000081C100007FC100007DC1000037
S11301C07BC1000079C1000077C1000075C1000047
S11301D073C1000071C100006FC100006DC1000057
S11301E06BC1000069C10000000000000000002095
S11301F0202020200020505050000000005050F8D3
S113020050F850502078A07028F020C0C81020402A
S113021098186090A040A8906860204000000000FA
S1130220102040404020104020101010204000506A
S113023020F8205000002020F820200000000000BA
S1130240602040000000F800000000000000006092
S11302506000081020408000708898A8C88870202A
S1130260602020202070708808102040F8F81020AA
S11302701008887010305090F81010F880F00808BA
S11302808870304080F0888870F808102040404022
S1130290708888708888707088887808106000601A
S11302A06000606000006060006020400810204032
S11302B02010080000F800F80000804020102040C2
S11302C0807088081020002070880868A8A87070C2
S11302D0888888F88888F08888F08888F070888012
S11302E080808870E09088888890E0F88080F08032
S11302F080F8F88080E080808070888080988870A2
S1130300888888F8888888702020202020703810F9
S113031010101090608890A0C0A090888080808089
S11303208080F888D8A8888888888888C8A8988809
S11303308870888888888870F08888F080808070C9
S1130340888888A89068F08888F0A0908878808051
S1130350700808F0F82020202020208888888888C9
S1130360887088888888885020888888A8A8D88831
S11303708888502050888888885020202020F808B9
S113038010204080F8382020202020380080402091
S1130390100800E02020202020E0205088000000E9
S11303A000000000000000F84020100000000000E1
S11303B00070087888788080B0C88888F000007061
S11303C0808088700808689888887800007088F8A9
S11303D08070304840E04040400000788878083021
S11303E08080B0C888888820006020202070100099
S11303F030101090604040485060504860202020E9
S11304002020700000D0A8A888880000B0C8888880
S113041088000070888888700000F088F080800070
S11304200068987808080000B0C8808080000070D8
S1130430807008F04040E0404048300000888888E0
S113044098680000888888502000008888A8A850F0
S113045000008850205088000088887808700000C8
S1130460F8102040F81020204020201020202020C8
S11304702020204020201020204011241FBECFEF38
S1130480CDBFDFE5DEBF00E00CBF10E2A0E0B0E2CC
S1130490ECE2F1E100E00BBF02C007900D92AA3F2D
S11304A0B107D9F723E2AAEFB0E201C01D92A73247
S11304B0B207E1F74AD038C6A3CD88E08093450659
S11304C0809341068FEC8093A6081092A70810929F
S11304D0A30883E08093A50888E18093A408089585
S11304E08093A008E1EAF8E0808185FFFDCF2FEF3B
S11304F081EE94E0215080409040E1F700C000007C
S11305000895E1EAF8E080818823ECF78091A0085F
S113051008952FEF89EF90E0215080409040E1F75B
S113052000C000002FEF81EE94E021508040904005
S1130530E1F700C000002FEF89EF90E021508040E8
S11305409040E1F700C000000895B7DFC8E0D6E0AE
S11305500F2EFAE0AF2EF3E2BF2EF02D0F2EFBE0AC
S1130560CF2EF3E2DF2EF02D0F2EF3E1EF2EF3E288
S1130570FF2EF02D1DECB1D228E230E240E060E025
S11305808FE290E22CD42FEF81EE94E02150804052
S11305909040E1F700C0000028E230E240E060E073
S11305A089E390E21CD4EFEFF1EE24E0E150F04057
S11305B02040E1F700C00000109207218881888163
S11305C08823E9F328E230E240E060E085E490E249
S11305D006D48FEF91EEE4E081509040E040E1F7E3
S11305E000C0000010920721E0E0F0E0E45EFF4D5F
S11305F0808176DFE0910721EF5FE0930721EC3003
S1130600A0F37FDF809326237CDF8093262379DF8A
S11306108093262376DF8093262373DF809326231B
S113062070DF809326236DDF809326236ADF809317
S1130630262367DF8093262364DF8093262361DFEC
S1130640809320235EDF80932023809126238111D1
S1130650B2C128E230E240E060E083E590E2BFD33B
S113066010920721AAC1F0E0E15FFF4D808138DFDD
S1130670E0910721EF5FE0930721ED30A0F341DF24
S1130680809326233EDF809326233BDF809326231B
S113069038DF8093262335DF8093262332DF80934F
S11306A026232FDF809326232CDF8093262329DF24
S11306B08093262326DF8093262323DF8093202321
S11306C020DF809320238091262381110CC005D242
S11306D028E230E240E060E080E690E280D31092CD
S11306E00721E0E008C028E230E240E060E08BE669
S11306F090E275D340CFF0E0E050F04E8081F0DE20
S1130700E0910721EF5FE0930721EF30A0F3F9DEDA
S113071080932623F6DE80932623F3DE809326231C
S1130720F0DE80932623EDDE80932623EADE809399
S11307302623E7DE80932623E4DE80932623E1DE6E
S113074080932623DEDE80932623DBDE8093202322
S1130750D8DE809320238091262381110CCF28E2B8
S113076030E240E060E08AE790E239D31882888181
S1130770811128C088818823E9F328E230E240E02F
S113078060E083E890E22BD380910021C2DE809167
S1130790FF20BFDE8091FE20BCDE8091FD20B9DE0B
S11307A0FFEF29EF80E0F15020408040E1F700C0E6
S11307B000001092FD201092FE201092FF20109253
S11307C00021D9CE8091FC20813009F090C0109294
S11307D0FB201092FC2000E080912123181688F45D
S11307E090DEE02FF0E0E65FFC4D8083E091FB209B
S11307F0EF5FE093FB2080912123E81710F40E2F84
S1130800EFCF9FEFE9EFF0E09150E040F040E1F7E7
S113081000C0000010920121F50180818F3E09F093
S113082055C0F6018081813009F050C0F701808104
S113083081114CC028E230E240E060E08BE890E2B5
S1130840CED228E230E240E060E08AE990E2C7D20A
S1130850E0910121F0E0E65FFC4D2385219F812D8D
S1130860112486958695869580930621982F990F55
S1130870392F330F330F930F291B209305218053F6
S1130880880F982F990F990F980F9093042180ED5A
S1130890820F80930321890F80930221FFEF29EFB8
S11308A080E0F15020408040E1F700C000008091DA
S11308B0FA20813009F05FCE28E230E240E060E0C7
S11308C085EA90E28CD21092FA2011C028E230E23C
S11308D040E060E088EB90E282D29FEFE9EFF0E045
S11308E09150E040F040E1F700C0000044CE888120
S11308F0811116C0809100218F5F8093002128E22E
S113090030E240E060E080EC90E269D22FEF89EFC2
S113091090E0215080409040E1F700C000002BCED1
S11309208881811116C08091FF208F5F8093FF2002
S113093028E230E240E060E080ED90E250D2EFEF58
S1130940F9EF20E0E150F0402040E1F700C0000062
S113095012CE8881811116C08091FE208F5F809312
S1130960FE2028E230E240E060E080EE90E237D200
S11309708FEF99EFE0E081509040E040E1F700C054
S11309800000F9CD88818111B2CF8091FD208F5F65
S11309908093FD2028E230E240E060E089EE90E2BE
S11309A01ED2FFEF29EF80E0F15020408040E1F7B4
S11309B000C00000E0CD10920721E0E054CE1F9368
S11309C0CF93DF93182FD62FC42F03D11F70106B32
S11309D088E0E0EAF6E0868381E0E0E6F6E08683FC
S11309E0E0EAF9E0918195FFFDCF1093A009E0EAD8
S11309F0F9E0818186FFFDCFE0EAF9E0818180643E
S1130A008183808180931E23E0EAF6E088E0858379
S1130A109D2F9F7792959F709061868381E0E0E699
S1130A20F6E08683E0EAF9E0818185FFFDCF9093CB
S1130A30A009E0EAF9E0818186FFFDCFE0EAF9E070
S1130A40818180648183808180931E23E0EAF6E0C3
S1130A5088E08583DF70868381E0E0E6F6E08683C4
S1130A60E0EAF9E0818185FFFDCFD093A009E0EAB7
S1130A70F9E0818186FFFDCFE0EAF9E081818064BD
S1130A808183808180931E23E0EAF6E088E08583F9
S1130A90868381E0E0E6F6E08583E0EAF9E081819F
S1130AA085FFFDCFC093A009E0EAF9E0818186FFCC
S1130AB0FDCFE0EAF9E081818064818380818093C5
S1130AC01E2381E0E0E6F6E0868388E0E0EAF6E0D3
S1130AD08583DF91CF911F910895CF93DF9388E0B1
S1130AE091E272D0A5D188E0E0EAF6E0868381E065
S1130AF0E0E6F6E08683E0EAF9E0818185FFFDCF58
S1130B0080E48093A009E0EAF9E0818186FFFDCFCB
S1130B10E0EAF9E0818180648183808180931E23EF
S1130B2088E0E0EAF6E08583D0E00AC040E06C2F7C
S1130B308D2F45DFCF5FC038C9F7DF5FD43011F0A8
S1130B40C0E0F4CFDF91CF910895FF920F931F93EC
S1130B50CF93DF93182F042F882374F1603260F54C
S1130B60F62EF694F694F6942F2D30E031952195D7
S1130B703109220F331F220F331F220F331F260F79
S1130B80311DE1E0F0E0EF0102C0CC0FDD1F2A953A
S1130B90E2F7682F8F2D2CD0013021F028F002309D
S1130BA031F006C08C2B04C0C0958C2301C08C2767
S1130BB0482F612F8F2D03DFDF91CF911F910F916C
S1130BC0FF90089515C008958093082390930923F6
S1130BD0089520E8829FC0011124FC01E60FF11D55
S1130BE08091082390910923E80FF91F4083089509
S1130BF020E8829FC0011124FC01E60FF11D8091C1
S1130C00082390910923E80FF91F80810895FF922A
S1130C100F931F93CF93DF93E42FF0E0E80FF11DC0
S1130C20E138F10514F040E8481B442309F459C0A5
S1130C30C62FC695C695C695EC2FF0E0F195E195C3
S1130C40F109EE0FFF1FEE0FFF1FEE0FFF1FDF0175
S1130C50A60FB11DBD01E1E0F0E0DF0102C0AA0F63
S1130C60BB1F6A95E2F70A2F213049F068F0223061
S1130C7009F037C0D42FFF24FA94F80E26C0D42FDD
S1130C80FF24FA94F80E07C0D42FFF24FA94F80E28
S1130C900A2F00950DC01F2D1D0F612F8C2F92DF81
S1130CA0482F402B612F8C2F8ADED150A1F719C019
S1130CB01F2D1D0F612F8C2F85DF482F4023612F9F
S1130CC08C2F7DDED150A1F70CC01F2D1D0F612F7D
S1130CD08C2F78DF482F4027612F8C2F70DED15066
S1130CE0A1F7DF91CF911F910F91FF900895FF928B
S1130CF00F931F93CF93DF93D82F142F222361F0E8
S1130D00C22FFF24FA94F60E6F2D6C0F202F412F63
S1130D108D2F7DDFC150C1F7DF91CF911F910F91CE
S1130D20FF900895AF92BF92CF92DF92EF92FF921D
S1130D300F931F93CF93DF93C82FD62EA42E790140
S1130D4000E0F901248143816A2D8D2DD0DFF70164
S1130D509081911139C08381A82FA695A695A69557
S1130D60877009F0AF5FF701C480AC9DD0011124F6
S1130D70EC2FF0E0E7018D81E81BF109AE9F9001B3
S1130D80AF9F300DBE9F300D11240980DA81C02D34
S1130D90C20FD31FF701B380BB2099F000E010E02D
S1130DA0812F8D0D912F977019F4FE0104912196D6
S1130DB000231CF441E06A2DC8DE000F1F5F1B11E5
S1130DC0EFCFA394CA9431F7DF91CF911F910F9184
S1130DD0FF90EF90DF90CF90BF90AF900895DF9297
S1130DE0EF92FF920F931F93CF93DF93E42E890129
S1130DF0EC01F62ED62E89918A3031F4F8018481E3
S1130E008F5FE80EFD2C09C08D3039F098014E2D0E
S1130E106F2D88DFF8018381F80E88818111EBCF73
S1130E20DF91CF911F910F91FF90EF90DF90089584
S1130E30CF93DF9388E0E0E0F6E086838AE68A9544
S1130E40F1F700C088E08583CAE6CA95F1F700C0CF
S1130E50E0E6F6E03BE03183A0EAB6E028E0119654
S1130E602C93119760E076E0EB01298340E180E860
S1130E7096E0EC014983358315962C931597EB0185
S1130E802D83C0EAD9E088E18C838D81806C8D83C9
S1130E9081E0868316962C938683E0EAF9E08181CB
S1130EA085FFFDCF80EA8093A009E0EAF9E0818123
S1130EB086FFFDCFE0EAF9E081818064818380814F
S1130EC080931E23E0EAF6E088E08583868381E050
S1130ED0E0E6F6E08683E0EAF9E0818185FFFDCF74
S1130EE086EA8093A009E0EAF9E0818186FFFDCFDC
S1130EF0E0EAF9E0818180648183808180931E230C
S1130F00E0EAF6E088E08583868381E0E0E6F6E0C7
S1130F108683E0EAF9E0818185FFFDCF88EC809348
S1130F20A009E0EAF9E0818186FFFDCFE0EAF9E07B
S1130F30818180648183808180931E23E0EAF6E0CE
S1130F4088E08583868381E0E0E6F6E08683E0EA54
S1130F50F9E0818185FFFDCF82EA8093A009E0EA70
S1130F60F9E0818186FFFDCFE0EAF9E081818064C8
S1130F708183808180931E23E0EAF6E088E0858304
S1130F80868381E0E0E6F6E08683E0EAF9E08181A9
S1130F9085FFFDCF8FE28093A009E0EAF9E081812B
S1130FA086FFFDCFE0EAF9E081818064818380815E
S1130FB080931E23E0EAF6E088E08583868381E05F
S1130FC0E0E6F6E08683E0EAF9E0818185FFFDCF83
S1130FD088EF8093A009E0EAF9E0818186FFFDCFE4
S1130FE0E0EAF9E0818180648183808180931E231B
S1130FF0E0EAF6E088E08583868381E0E0E6F6E0D7
S11310008683E0EAF9E0818185FFFDCF1092A00993
S1131010E0EAF9E0818186FFFDCFE0EAF9E0818131
S113102080648183808180931E23E0EAF6E088E077
S11310308583868381E0E0E6F6E08683E0EAF9E0F2
S1131040818185FFFDCF81E28093A009E0EAF9E088
S1131050818186FFFDCFE0EAF9E0818180648183AC
S1131060808180931E23E0EAF6E088E0858386830E
S113107081E0E0E6F6E08683E0EAF9E0818185FF3D
S1131080FDCF81E88093A009E0EAF9E0818186FF41
S1131090FDCFE0EAF9E081818064818380818093DF
S11310A01E23E0EAF6E088E08583868381E0E0E6BB
S11310B0F6E08683E0EAF9E0818185FFFDCF81E2F5
S11310C08093A009E0EAF9E0818186FFFDCFE0EAA0
S11310D0F9E0818180648183808180931E23E0EA2A
S11310E0F6E088E08583868381E0E0E6F6E08683A7
S11310F0E0EAF9E0818185FFFDCF8FEA8093A009C2
S1131100E0EAF9E0818186FFFDCFE0EAF9E0818140
S113111080648183808180931E2388E0E0EAF6E086
S10F11208583DF91CF910895F894FFCFF0
S113112CEF01FFFFFFFF01000606010001000FEFB6
S113113C01FFFFFFFF01000402010008EF01FFFFA4
S113114CFFFF01000301000500E8010607207D20D4
S113115C77656C636F6D65200045564D2077697417
S113116C6820465000456E726F6C6C696E672E2E4B
S113117C2E2E00456E726F6C6C696E67206F6B005F
S113118C67656E63686172206F6B0067656E636878
S113119C6172206E6F74206F6B0073746F726520B4
S11311AC6F6B00412042204320440020537563633D
S11311BC65737366756C6C79200020636F6D706C4D
S11311CC657465640020506C7A20706F6C6C2075AB
S11311DC7220766F74652000204661696C6564002A
S11311EC566F746520666F722070617274204100B2
S11311FC566F746520666F722070617274204200A1
S113120C766F7465666F726300566F746520666FD3
S10D121C7220706172742044000017
S9030000FC
