S015000066696E6765727072696E7431342E7372656302
S113000046C2000063C2000061C200005FC200007B
S11300105DC200005BC2000059C2000057C200006C
S113002055C2000053C2000051C200004FC200007C
S11300304DC200004BC2000049C2000047C200008C
S113004045C2000043C2000041C200003FC200009C
S11300503DC200003BC2000039C2000037C20000AC
S113006035C2000033C2000031C200002FC20000BC
S11300702DC200002BC2000029C2000027C20000CC
S113008025C2000023C2000021C200001FC20000DC
S11300901DC200001BC2000019C2000017C20000EC
S11300A015C2000013C2000011C200000FC20000FC
S11300B00DC200000BC2000009C2000007C200000C
S11300C005C2000003C2000001C20000FFC100001D
S11300D0FDC10000FBC10000F9C10000F7C1000030
S11300E0F5C10000F3C10000F1C10000EFC1000040
S11300F0EDC10000EBC10000E9C10000E7C1000050
S1130100E5C10000E3C10000E1C10000DFC100005F
S1130110DDC10000DBC10000D9C10000D7C100006F
S1130120D5C10000D3C10000D1C10000CFC100007F
S1130130CDC10000CBC10000C9C10000C7C100008F
S1130140C5C10000C3C10000C1C10000BFC100009F
S1130150BDC10000BBC10000B9C10000B7C10000AF
S1130160B5C10000B3C10000B1C10000AFC10000BF
S1130170ADC10000ABC10000A9C10000A7C10000CF
S1130180A5C10000A3C10000A1C100009FC10000DF
S11301909DC100009BC1000099C1000097C10000EF
S11301A095C1000093C1000091C100008FC10000FF
S11301B08DC100008BC1000089C1000087C100000F
S11301C085C1000083C1000081C100007FC100001F
S11301D07DC100007BC1000079C1000077C100002F
S11301E075C1000073C1000071C100006FC100003F
S11301F06DC100006BC1000069C100000000000077
S1130200000000202020202000205050500000003A
S1130210005050F850F850502078A07028F020C0BA
S1130220C810204098186090A040A89068602040B2
S1130230000000001020404040201040201010100A
S11302402040005020F8205000002020F8202000FA
S113025000000000602040000000F80000000000E2
S1130260000000606000081020408000708898A89A
S1130270C8887020602020202070708808102040DA
S1130280F8F810201008887010305090F81010F80A
S113029080F008088870304080F0888870F8081072
S11302A020404040708888708888707088887808FA
S11302B010600060600060600000606000602040CA
S11302C0081020402010080000F800F800008040CA
S11302D02010204080708808102000207088086852
S11302E0A8A87070888888F88888F08888F088883A
S11302F0F070888080808870E09088888890E0F82A
S11303008080F08080F8F88080E080808070888031
S113031080988870888888F88888887020202020B1
S11303202070381010101090608890A0C0A09088A1
S1130330808080808080F888D8A888888888888889
S1130340C8A898888870888888888870F08888F019
S113035080808070888888A89068F08888F0A09051
S113036088788080700808F0F820202020202088D9
S113037088888888887088888888885020888888B1
S1130380A8A8D88888885020508888888850202039
S11303902020F80810204080F83820202020203821
S11303A000804020100800E02020202020E0205081
S11303B08800000000000000000000F84020100049
S11303C0000000000070087888788080B0C88888B1
S11303D0F000007080808870080868988888780029
S11303E0007088F88070304840E040404000007859
S11303F0887808308080B0C88888882000602020F1
S113040020701000301010906040404850605048F8
S1130410602020202020700000D0A8A88888000038
S1130420B0C8888888000070888888700000F088C8
S1130430F08080000068987808080000B0C88080C8
S113044080000070807008F04040E0404048300078
S11304500088888898680000888888502000008870
S113046088A8A85000008850205088000088887808
S113047008700000F8102040F810202040202010C0
S11304802020202020202040202010202040112443
S11304901FBECFEFCDBFDFE5DEBF00E00CBF10E233
S11304A0A0E0B0E2E6ECFFE000E00BBF02C0079082
S11304B00D92A83EB107D9F723E2A8EEB0E201C03D
S11304C01D92A630B207E1F735D07BC599CDE0E5A2
S11304D0F0E0808182608083E1E5F0E0808181FF4B
S11304E0FDCF88ED84BF81E080934000089588E0CB
S11304F080934506809341068FEC8093A608109262
S1130500A7081092A30883E08093A50888E180934C
S1130510A40808958093A008E1EAF8E0808185FFAB
S1130520FDCF0895E1EAF8E080818823ECF780911B
S1130530A00808958FEF80938106C9DFD8DF1AD20F
S113054081E080930206C8E0D6E02AE230E240E08F
S113055060E081E390E290D32FEF31EE84E021500C
S113056030408040E1F700C000002AE230E240E081
S113057060E08BE390E280D39FEF21EE34E0915072
S113058020403040E1F700C000001092E82088814C
S113059080FD74C0888180FFFDCFECD12AE230E277
S11305A040E060E08CE490E267D38AEA96EE26E9C4
S11305B031E08150904020403040D9F70000109243
S11305C0E820E0E0F0E0E25EFF4D8081A3DFE0910F
S11305D0E820EF5FE093E820EC30A0F3A3DF809302
S11305E00523A0DF809305239DDF809305239ADFF5
S11305F08093052397DF8093052394DF809305235D
S113060091DF809305238EDF809305238BDF809316
S1130610052388DF8093052385DF8093002382DF11
S11306208093002380910523811116C0A3D12AE26F
S113063030E240E060E08FE590E21ED38AEA96EE75
S113064026E931E08150904020403040D9F7000045
S11306501092E820E0E024C08DD12AE230E240E0AC
S113066060E08CE690E208D38FEF9FE423EC8150A6
S113067090402040E1F700C0000067CF7BD12AE220
S113068030E240E060E080E890E2F6D23FEF8FE4B1
S113069093EC315080409040E1F700C0000055CF0A
S11306A0F0E0EF5EFF4D808135DFE091E820EF5F01
S11306B0E093E820ED30A0F335DF8093052332DFAB
S11306C0809305232FDF809305232CDF809305235C
S11306D029DF8093052326DF8093052323DF80937E
S11306E0052320DF809305231DDF809305231ADF74
S11306F08093052317DF8093002314DF8093002366
S11307008091052381118DC035D12AE230E240E089
S113071060E084E990E2B0D22FEF3FE483EC215013
S113072030408040E1F700C000002AE230E240E0BF
S113073060E080EA90E2A0D29FEF2FE433EC915086
S113074020403040E1F700C000001092E820E0E0D3
S1130750F0E0E050F04E8081DDDEE091E820EF5FD4
S1130760E093E820E131A0F3DDDE80930523DADEB7
S113077080930523D7DE80930523D4DE809305235D
S1130780D1DE80930523CEDE80930523CBDE8093D8
S11307900523C8DE80930523C5DE80930523C2DECE
S11307A080930523BFDE80930023BCDE8093002367
S11307B0B9DE80930023B6DE80930023B3DE8093FA
S11307C00023B0DE8093002380910523811116C09D
S11307D0D1D02AE230E240E060E085EB90E24CD2F6
S11307E08AEA96EE26E931E081509040204030407C
S11307F0D9F70000888180FFCDCE40CFBBD02AE25C
S113080030E240E060E08CEC90E236D28AEA96EE88
S113081026E931E08150904020403040D9F7000073
S113082094CEA8D02AE230E240E060E088ED90E285
S113083023D22AE230E242E169E080910523BFD16C
S11308408FEF93E224EF30E081509040204030401D
S1130850D9F700C0000079CE1F93CF93DF93182FF0
S1130860D62FC42F03D11F70106B88E0E0EAF6E0A6
S1130870868381E0E0E6F6E08683E0EAF9E09181B0
S113088095FFFDCF1093A009E0EAF9E0818186FF8E
S1130890FDCFE0EAF9E081818064818380818093E7
S11308A0FF22E0EAF6E088E085839D2F9F7792950A
S11308B09F709061868381E0E0E6F6E08683E0EA5B
S11308C0F9E0818185FFFDCF9093A009E0EAF9E08A
S11308D0818186FFFDCFE0EAF9E081818064818334
S11308E080818093FF22E0EAF6E088E08583DF7070
S11308F0868381E0E0E6F6E08683E0EAF9E0818140
S113090085FFFDCFD093A009E0EAF9E0818186FF5D
S1130910FDCFE0EAF9E08181806481838081809366
S1130920FF22E0EAF6E088E08583868381E0E0E662
S1130930F6E08583E0EAF9E0818185FFFDCFC0938D
S1130940A009E0EAF9E0818186FFFDCFE0EAF9E061
S113095081818064818380818093FF2281E0E0E64D
S1130960F6E0868388E0E0EAF6E08583DF91CF91C4
S11309701F910895CF93DF9389EE90E272D0A5D1B1
S113098088E0E0EAF6E0868381E0E0E6F6E086834C
S1130990E0EAF9E0818185FFFDCF80E48093A0093E
S11309A0E0EAF9E0818186FFFDCFE0EAF9E08181A8
S11309B08064818380818093FF2288E0E0EAF6E00E
S11309C08583D0E00AC040E06C2F8D2F45DFCF5FD8
S11309D0C038C9F7DF5FD43011F0C0E0F4CFDF9145
S11309E0CF910895FF920F931F93CF93DF93182F06
S11309F0042F882374F1603260F5F62EF694F69491
S1130A00F6942F2D30E0319521953109220F331FB3
S1130A10220F331F220F331F260F311DE1E0F0E0B8
S1130A20EF0102C0CC0FDD1F2A95E2F7682F8F2D4E
S1130A302CD0013021F028F0023031F006C08C2B8C
S1130A4004C0C0958C2301C08C27482F612F8F2DA3
S1130A5003DFDF91CF911F910F91FF90089515C08F
S1130A6008958093E9229093EA22089520E8829FD2
S1130A70C0011124FC01E60FF11D8091E92290913F
S1130A80EA22E80FF91F4083089520E8829FC001FD
S1130A901124FC01E60FF11D8091E9229091EA22D4
S1130AA0E80FF91F80810895FF920F931F93CF934E
S1130AB0DF93E42FF0E0E80FF11DE138F10514F0C5
S1130AC040E8481B442309F459C0C62FC695C6956F
S1130AD0C695EC2FF0E0F195E195F109EE0FFF1FBB
S1130AE0EE0FFF1FEE0FFF1FDF01A60FB11DBD01AB
S1130AF0E1E0F0E0DF0102C0AA0FBB1F6A95E2F754
S1130B000A2F213049F068F0223009F037C0D42F81
S1130B10FF24FA94F80E26C0D42FFF24FA94F80E7A
S1130B2007C0D42FFF24FA94F80E0A2F00950DC0A5
S1130B301F2D1D0F612F8C2F92DF482F402B612F0B
S1130B408C2F8ADED150A1F719C01F2D1D0F612FE4
S1130B508C2F85DF482F4023612F8C2F7DDED150D1
S1130B60A1F70CC01F2D1D0F612F8C2F78DF482F8C
S1130B704027612F8C2F70DED150A1F7DF91CF91E8
S1130B801F910F91FF900895FF920F931F93CF939E
S1130B90DF93D82F142F222361F0C22FFF24FA945D
S1130BA0F60E6F2D6C0F202F412F8D2F7DDFC1503E
S1130BB0C1F7DF91CF911F910F91FF900895AF92EC
S1130BC0BF92CF92DF92EF92FF920F931F93CF9336
S1130BD0DF93C82FD62EA42E790100E0F9012481D9
S1130BE043816A2D8D2DD0DFF7019081911139C099
S1130BF08381A82FA695A695A695877009F0AF5F67
S1130C00F701C480AC9DD0011124EC2FF0E0E70182
S1130C108D81E81BF109AE9F9001AF9F300DBE9FFF
S1130C20300D11240980DA81C02DC20FD31FF701C2
S1130C30B380BB2099F000E010E0812F8D0D912F3F
S1130C40977019F4FE010491219600231CF441E0ED
S1130C506A2DC8DE000F1F5F1B11EFCFA394CA9447
S1130C6031F7DF91CF911F910F91FF90EF90DF90BB
S1130C70CF90BF90AF900895DF92EF92FF920F93C1
S1130C801F93CF93DF93E42E8901EC01F62ED62E29
S1130C9089918A3031F4F80184818F5FE80EFD2C4C
S1130CA009C08D3039F098014E2D6F2D88DFF80181
S1130CB08381F80E88818111EBCFDF91CF911F9151
S1130CC00F91FF90EF90DF900895CF93DF9388E02A
S1130CD0E0E0F6E086838AE68A95F1F700C088E0D2
S1130CE08583CAE6CA95F1F700C0E0E6F6E03BE08A
S1130CF03183A0EAB6E028E011962C93119760E0C6
S1130D0076E0EB01298340E180E896E0EC01498339
S1130D10358315962C931597EB012D83C0EAD9E002
S1130D2088E18C838D81806C8D8381E08683169627
S1130D302C938683E0EAF9E0818185FFFDCF80EA88
S1130D408093A009E0EAF9E0818186FFFDCFE0EA23
S1130D50F9E081818064818380818093FF22E0EACD
S1130D60F6E088E08583868381E0E0E6F6E086832A
S1130D70E0EAF9E0818185FFFDCF86EA8093A0094E
S1130D80E0EAF9E0818186FFFDCFE0EAF9E08181C4
S1130D908064818380818093FF22E0EAF6E088E02A
S1130DA08583868381E0E0E6F6E08683E0EAF9E085
S1130DB0818185FFFDCF88EC8093A009E0EAF9E00A
S1130DC0818186FFFDCFE0EAF9E08181806481833F
S1130DD080818093FF22E0EAF6E088E085838683C1
S1130DE081E0E0E6F6E08683E0EAF9E0818185FFD0
S1130DF0FDCF82EA8093A009E0EAF9E0818186FFD1
S1130E00FDCFE0EAF9E08181806481838081809371
S1130E10FF22E0EAF6E088E08583868381E0E0E66D
S1130E20F6E08683E0EAF9E0818185FFFDCF8FE279
S1130E308093A009E0EAF9E0818186FFFDCFE0EA32
S1130E40F9E081818064818380818093FF22E0EADC
S1130E50F6E088E08583868381E0E0E6F6E0868339
S1130E60E0EAF9E0818185FFFDCF88EF8093A00956
S1130E70E0EAF9E0818186FFFDCFE0EAF9E08181D3
S1130E808064818380818093FF22E0EAF6E088E039
S1130E908583868381E0E0E6F6E08683E0EAF9E094
S1130EA0818185FFFDCF1092A009E0EAF9E08181FC
S1130EB086FFFDCFE0EAF9E081818064818380814F
S1130EC08093FF22E0EAF6E088E08583868381E070
S1130ED0E0E6F6E08683E0EAF9E0818185FFFDCF74
S1130EE081E28093A009E0EAF9E0818186FFFDCFE9
S1130EF0E0EAF9E081818064818380818093FF222C
S1130F00E0EAF6E088E08583868381E0E0E6F6E0C7
S1130F108683E0EAF9E0818185FFFDCF81E8809353
S1130F20A009E0EAF9E0818186FFFDCFE0EAF9E07B
S1130F3081818064818380818093FF22E0EAF6E0EE
S1130F4088E08583868381E0E0E6F6E08683E0EA54
S1130F50F9E0818185FFFDCF81E28093A009E0EA79
S1130F60F9E0818186FFFDCFE0EAF9E081818064C8
S1130F70818380818093FF22E0EAF6E088E0858324
S1130F80868381E0E0E6F6E08683E0EAF9E08181A9
S1130F9085FFFDCF8FEA8093A009E0EAF9E0818123
S1130FA086FFFDCFE0EAF9E081818064818380815E
S1130FB08093FF2288E0E0EAF6E08583DF91CF9119
S1090FC00895F894FFCF30
S1130FC6EF01FFFFFFFF0100080402000000040018
S1130FD613EF01FFFFFFFF01000402020009EF0106
S1130FE6FFFFFFFF01000301000500FC01060720C7
S1130FF67D2077656C636F6D6520005343414E20F9
S1131006594F55522046494E474552007363616E07
S11310166E696E67206E657720696D616765004548
S11310266E726F6C6C696E67206F6B00313A204587
S11310366E726F6C6C696E67206E6F74206F6B00D6
S1131046323A20456E726F6C6C696E67206E6F74EF
S1131056206F6B0067656E6368617220206F6B009A
S1131066456E746572696E6720746F204964656E97
S113107674696679004D6174636865643A204F70DB
S1131086656E2074686520646F6F72004E6F7420FD
S11310964D6174636865640067656E636861722098
S10B10A66E6F74206F6B0000F3
S9030000FC
