:1000000046C2000064C2000062C2000060C200007C
:100010005EC200005CC200005AC2000058C200006C
:1000200056C2000054C2000052C2000050C200007C
:100030004EC200004CC200004AC2000048C200008C
:1000400046C2000044C2000042C2000040C200009C
:100050003EC200003CC200003AC2000038C20000AC
:1000600036C2000034C2000032C2000030C20000BC
:100070002EC200002CC200002AC2000028C20000CC
:1000800026C2000024C2000022C2000020C20000DC
:100090001EC200001CC200001AC2000018C20000EC
:1000A00016C2000014C2000012C2000010C20000FC
:1000B0000EC200000CC200000AC2000008C200000C
:1000C00006C2000004C2000002C2000000C200001C
:1000D000FEC10000FCC10000FAC10000F8C1000030
:1000E000F6C10000F4C10000F2C10000F0C1000040
:1000F000EEC10000ECC10000EAC10000E8C1000050
:10010000E6C10000E4C10000E2C10000E0C100005F
:10011000DEC10000DCC10000DAC10000D8C100006F
:10012000D6C10000D4C10000D2C10000D0C100007F
:10013000CEC10000CCC10000CAC10000C8C100008F
:10014000C6C10000C4C10000C2C10000C0C100009F
:10015000BEC10000BCC10000BAC10000B8C10000AF
:10016000B6C10000B4C10000B2C10000B0C10000BF
:10017000AEC10000ACC10000AAC10000A8C10000CF
:10018000A6C10000A4C10000A2C10000A0C10000DF
:100190009EC100009CC100009AC1000098C10000EF
:1001A00096C1000094C1000092C1000090C10000FF
:1001B0008EC100008CC100008AC1000088C100000F
:1001C00086C1000084C1000082C1000080C100001F
:1001D0007EC100007CC100007AC1000078C100002F
:1001E00076C1000074C1000072C1000070C100003F
:1001F0006EC100006CC100006AC100000000000078
:10020000000000202020202000205050500000003E
:10021000005050F850F850502078A07028F020C0BE
:10022000C810204098186090A040A89068602040B6
:10023000000000001020404040201040201010100E
:100240002040005020F8205000002020F8202000FE
:1002500000000000602040000000F80000000000E6
:10026000000000606000081020408000708898A89E
:10027000C8887020602020202070708808102040DE
:10028000F8F810201008887010305090F81010F80E
:1002900080F008088870304080F0888870F8081076
:1002A00020404040708888708888707088887808FE
:1002B00010600060600060600000606000602040CE
:1002C000081020402010080000F800F800008040CE
:1002D0002010204080708808102000207088086856
:1002E000A8A87070888888F88888F08888F088883E
:1002F000F070888080808870E09088888890E0F82E
:100300008080F08080F8F88080E080808070888035
:1003100080988870888888F88888887020202020B5
:100320002070381010101090608890A0C0A09088A5
:10033000808080808080F888D8A88888888888888D
:10034000C8A898888870888888888870F08888F01D
:1003500080808070888888A89068F08888F0A09055
:1003600088788080700808F0F820202020202088DD
:1003700088888888887088888888885020888888B5
:10038000A8A8D8888888502050888888885020203D
:100390002020F80810204080F83820202020203825
:1003A00000804020100800E02020202020E0205085
:1003B0008800000000000000000000F8402010004D
:1003C000000000000070087888788080B0C88888B5
:1003D000F00000708080887008086898888878002D
:1003E000007088F88070304840E04040400000785D
:1003F000887808308080B0C88888882000602020F5
:1004000020701000301010906040404850605048FC
:10041000602020202020700000D0A8A8888800003C
:10042000B0C8888888000070888888700000F088CC
:10043000F08080000068987808080000B0C88080CC
:1004400080000070807008F04040E040404830007C
:100450000088888898680000888888502000008874
:1004600088A8A8500000885020508800008888780C
:1004700008700000F8102040F810202040202010C4
:100480002020202020202040202010202040112447
:100490001FBECFEFCDBFDFE5DEBF00E00CBF11E236
:1004A000A0E0B0E2E4EAF5E100E00BBF02C0079093
:1004B0000D92A83AB107D9F723E2A8EAB1E201C048
:1004C0001D92A33BB207E1F7F1D70C94D00A98CD67
:1004D0001F93CF93DF93182FD62FC42F03D11F70F4
:1004E000106B88E0E0EAF6E0868381E0E0E6F6E083
:1004F0008683E0EAF9E0918195FFFDCF1093A00992
:10050000E0EAF9E0818186FFFDCFE0EAF9E0818150
:100510008064818380818093AF23E0EAF6E088E005
:1005200085839D2F9F7792959F709061868381E050
:10053000E0E6F6E08683E0EAF9E0818185FFFDCF21
:100540009093A009E0EAF9E0818186FFFDCFE0EA1F
:10055000F9E081818064818380818093AF23E0EA28
:10056000F6E088E08583DF70868381E0E0E6F6E0F0
:100570008683E0EAF9E0818185FFFDCFD093A00971
:10058000E0EAF9E0818186FFFDCFE0EAF9E08181D0
:100590008064818380818093AF23E0EAF6E088E085
:1005A0008583868381E0E0E6F6E08583E0EAF9E092
:1005B000818185FFFDCFC093A009E0EAF9E0818148
:1005C00086FFFDCFE0EAF9E081818064818380814C
:1005D0008093AF2381E0E0E6F6E0868388E0E0EAFE
:1005E000F6E08583DF91CF911F910895CF93DF933C
:1005F00088EA91E272D0A5D188E0E0EAF6E086834D
:1006000081E0E0E6F6E08683E0EAF9E0818185FFBB
:10061000FDCF80E48093A009E0EAF9E0818186FFC4
:10062000FDCFE0EAF9E0818180648183808180935D
:10063000AF2388E0E0EAF6E08583D0E00AC040E03E
:100640006C2F8D2F45DFCF5FC038C9F7DF5FD43007
:1006500011F0C0E0F4CFDF91CF910895FF920F9396
:100660001F93CF93DF93182F042F882374F16032E8
:1006700060F5F62EF694F694F6942F2D30E0319531
:1006800021953109220F331F220F331F220F331FF1
:10069000260F311DE1E0F0E0EF0102C0CC0FDD1FBD
:1006A0002A95E2F7682F8F2D2CD0013021F028F009
:1006B000023031F006C08C2B04C0C0958C2301C0E1
:1006C0008C27482F612F8F2D03DFDF91CF911F9152
:1006D0000F91FF90089515C008958093A8239093DB
:1006E000A923089520E8829FC0011124FC01E60F90
:1006F000F11D8091A8239091A923E80FF91F408351
:10070000089520E8829FC0011124FC01E60FF11D2D
:100710008091A8239091A923E80FF91F8081089563
:10072000FF920F931F93CF93DF93E42FF0E0E80F36
:10073000F11DE138F10514F040E8481B442309F4A9
:1007400059C0C62FC695C695C695EC2FF0E0F19519
:10075000E195F109EE0FFF1FEE0FFF1FEE0FFF1FD8
:10076000DF01A60FB11DBD01E1E0F0E0DF0102C035
:10077000AA0FBB1F6A95E2F70A2F213049F068F0F3
:10078000223009F037C0D42FFF24FA94F80E26C087
:10079000D42FFF24FA94F80E07C0D42FFF24FA9424
:1007A000F80E0A2F00950DC01F2D1D0F612F8C2FE5
:1007B00092DF482F402B612F8C2F8ADED150A1F77A
:1007C00019C01F2D1D0F612F8C2F85DF482F40234F
:1007D000612F8C2F7DDED150A1F70CC01F2D1D0F76
:1007E000612F8C2F78DF482F4027612F8C2F70DEF0
:1007F000D150A1F7DF91CF911F910F91FF900895F4
:10080000FF920F931F93CF93DF93D82F142F2223A0
:1008100061F0C22FFF24FA94F60E6F2D6C0F202F7B
:10082000412F8D2F7DDFC150C1F7DF91CF911F91F7
:100830000F91FF900895AF92BF92CF92DF92EF9207
:10084000FF920F931F93CF93DF93C82FD62EA42E22
:10085000790100E0F901248143816A2D8D2DD0DFDB
:10086000F7019081911139C08381A82FA695A69593
:10087000A695877009F0AF5FF701C480AC9DD001E9
:100880001124EC2FF0E0E7018D81E81BF109AE9F08
:100890009001AF9F300DBE9F300D11240980DA8189
:1008A000C02DC20FD31FF701B380BB2099F000E029
:1008B00010E0812F8D0D912F977019F4FE01049196
:1008C000219600231CF441E06A2DC8DE000F1F5F53
:1008D0001B11EFCFA394CA9431F7DF91CF911F91F1
:1008E0000F91FF90EF90DF90CF90BF90AF90089561
:1008F000DF92EF92FF920F931F93CF93DF93E42E3B
:100900008901EC01F62ED62E89918A3031F4F80156
:1009100084818F5FE80EFD2C09C08D3039F098017D
:100920004E2D6F2D88DFF8018381F80E88818111AB
:10093000EBCFDF91CF911F910F91FF90EF90DF9060
:100940000895CF93DF9388E0E0E0F6E086838AE6BF
:100950008A95F1F700C088E08583CAE6CA95F1F769
:1009600000C0E0E6F6E03BE03183A0EAB6E028E034
:1009700011962C93119760E076E0EB01298340E11A
:1009800080E896E0EC014983358315962C93159702
:10099000EB012D83C0EAD9E088E18C838D81806CE6
:1009A0008D8381E0868316962C938683E0EAF9E0B6
:1009B000818185FFFDCF80EA8093A009E0EAF9E01C
:1009C000818186FFFDCFE0EAF9E081818064818347
:1009D00080818093AF23E0EAF6E088E08583868318
:1009E00081E0E0E6F6E08683E0EAF9E0818185FFD8
:1009F000FDCF86EA8093A009E0EAF9E0818186FFD5
:100A0000FDCFE0EAF9E08181806481838081809379
:100A1000AF23E0EAF6E088E08583868381E0E0E6C4
:100A2000F6E08683E0EAF9E0818185FFFDCF88EC7E
:100A30008093A009E0EAF9E0818186FFFDCFE0EA3A
:100A4000F9E081818064818380818093AF23E0EA33
:100A5000F6E088E08583868381E0E0E6F6E0868341
:100A6000E0EAF9E0818185FFFDCF82EA8093A00969
:100A7000E0EAF9E0818186FFFDCFE0EAF9E08181DB
:100A80008064818380818093AF23E0EAF6E088E090
:100A90008583868381E0E0E6F6E08683E0EAF9E09C
:100AA000818185FFFDCF8FE28093A009E0EAF9E024
:100AB000818186FFFDCFE0EAF9E081818064818356
:100AC00080818093AF23E0EAF6E088E08583868327
:100AD00081E0E0E6F6E08683E0EAF9E0818185FFE7
:100AE000FDCF88EF8093A009E0EAF9E0818186FFDD
:100AF000FDCFE0EAF9E08181806481838081809389
:100B0000AF23E0EAF6E088E08583868381E0E0E6D3
:100B1000F6E08683E0EAF9E0818185FFFDCF10925F
:100B2000A009E0EAF9E0818186FFFDCFE0EAF9E083
:100B300081818064818380818093AF23E0EAF6E045
:100B400088E08583868381E0E0E6F6E08683E0EA5C
:100B5000F9E0818185FFFDCF81E28093A009E0EA81
:100B6000F9E0818186FFFDCFE0EAF9E081818064D0
:100B7000818380818093AF23E0EAF6E088E085837B
:100B8000868381E0E0E6F6E08683E0EAF9E08181B1
:100B900085FFFDCF81E88093A009E0EAF9E081813B
:100BA00086FFFDCFE0EAF9E0818180648183808166
:100BB0008093AF23E0EAF6E088E08583868381E0D6
:100BC000E0E6F6E08683E0EAF9E0818185FFFDCF8B
:100BD00081E28093A009E0EAF9E0818186FFFDCF00
:100BE000E0EAF9E081818064818380818093AF2392
:100BF000E0EAF6E088E08583868381E0E0E6F6E0DF
:100C00008683E0EAF9E0818185FFFDCF8FEA80935A
:100C1000A009E0EAF9E0818186FFFDCFE0EAF9E092
:100C200081818064818380818093AF2388E0E0EAC2
:100C3000F6E08583DF91CF910895E0E5F0E08081D3
:100C400082608083E1E5F0E0808181FFFDCF88ED67
:100C500084BF81E080934000089588E0809345063A
:100C6000809341069FEC9093A6081092A7081092DB
:100C7000A30893E09093A5088093A4080895809317
:100C8000A008E1EAF8E0808185FFFDCF2FEF81EE3B
:100C900094E0215080409040E1F700C000000895AA
:100CA0001F93CF93DF93D82F1DEC819FC12D11246B
:100CB000C695C695C695C19F112D112416951695FA
:100CC0001695812F8063DBDF110F812F880F880F2E
:100CD000180F8C2F811B8063D2DFCC0F8C2F880FD5
:100CE000880FC80F8D2F8C1B8063C9DF8DE0C7DF95
:100CF0008AE0C5DFDF91CF911F910895CF93DF93F5
:100D0000EC018881882329F02196B9DF899181112E
:100D1000FCCFDF91CF910895E4E8F6E082E0808394
:100D2000109260068081823039F5809168068133A7
:100D300019F55CDC80E1E0E8F6E0858320E030E254
:100D400040E060E087E090E2D3DD87E090E2D6DF2C
:100D50008091AE23E82FF0E0E055FC4D92E39083C4
:100D60008F5F8093AE232FEF87EA91E6215080407A
:100D70009040E1F700C0000080918406823039F590
:100D800080916806883319F531DC80E1E0E8F6E00F
:100D9000858320E030E240E060E08BE090E2A8DD77
:100DA0008BE090E2ABDF8091AE23E82FF0E0E055DE
:100DB000FC4D95E390838F5F8093AE232FEF87EAFE
:100DC00091E6215080409040E1F700C00000809102
:100DD0008406823039F580916806843319F5809154
:100DE000AE23E82FF0E0E055FC4D98E390838F5F51
:100DF0008093AE23FBDB80E1E0E8F6E0858320E032
:100E000030E240E060E08FE090E272DD8FE090E25F
:100E100075DF2FEF87EA91E6215080409040E1F79F
:100E200000C0000080918406823039F58091680608
:100E3000823319F5DBDB80E1E0E8F6E0858320E032
:100E400030E240E060E083E190E252DD83E190E255
:100E500055DF8091AE23E82FF0E0E055FC4D90E3A4
:100E600090838F5F8093AE232FEF87EA91E6215026
:100E700080409040E1F700C00000E4E8F6E081E047
:100E80008083109260068081813039F580916806F8
:100E9000813319F5ABDB80E1E0E8F6E0858320E003
:100EA00030E240E060E087E190E222DD87E190E21D
:100EB00025DF8091AE23E82FF0E0E055FC4D91E373
:100EC00090838F5F8093AE232FEF87EA91E62150C6
:100ED00080409040E1F700C000008091840681309E
:100EE00039F580916806883319F58091AE23E82F93
:100EF000F0E0E055FC4D94E390838F5F8093AE2348
:100F000075DB80E1E0E8F6E0858320E030E240E058
:100F100060E08BE190E2ECDC8BE190E2EFDE2FEF22
:100F200087EA91E6215080409040E1F700C0000040
:100F300080918406813039F580916806843319F5F3
:100F40008091AE23E82FF0E0E055FC4D97E39083CD
:100F50008F5F8093AE234ADB80E1E0E8F6E0858393
:100F600020E030E240E060E08FE190E2C1DC8FE120
:100F700090E2C4DE2FEF87EA91E621508040904056
:100F8000E1F700C0000080918406813039F580913E
:100F90006806823319F58091AE23E82FF0E0E05522
:100FA000FC4D9AE290838F5F8093AE231FDB80E13C
:100FB000E0E8F6E0858320E030E240E060E083E2B4
:100FC00090E296DC83E290E299DE2FEF87EA91E6E9
:100FD000215080409040E1F700C00000E4E8F6E0D6
:100FE00084E08083109260068081843039F580919E
:100FF0006806813319F58091AE23E82FF0E0E055C3
:10100000FC4D93E390838F5F8093AE23EFDA80E112
:10101000E0E8F6E0858320E030E240E060E080E058
:1010200091E266DC80E091E269DE2FEF87EA91E6EB
:10103000215080409040E1F700C00000809184067C
:10104000843039F580916806883319F58091AE2394
:10105000E82FF0E0E055FC4D96E390838F5F80939E
:10106000AE23C4DA80E1E0E8F6E0858320E030E2F8
:1010700040E060E087E290E23BDC87E290E23EDE27
:101080002FEF87EA91E6215080409040E1F700C0C1
:10109000000080918406843039F58091680684339D
:1010A00019F58091AE23E82FF0E0E055FC4D99E36F
:1010B00090838F5F8093AE2399DA80E1E0E8F6E0D9
:1010C000858320E030E240E060E08BE290E210DCDB
:1010D0008BE290E213DE2FEF87EA91E62150804009
:1010E0009040E1F700C0000080918406843039F51B
:1010F00080916806823319F579DA80E1E0E8F6E05C
:10110000858320E030E240E060E08FE290E2F0DBB7
:101110008FE290E2F3DD8091AE23E82FF0E0E0551E
:10112000FC4D93E290838F5F8093AE232FEF87EA8D
:1011300091E6215080409040E1F700C00000089502
:101140001F93CF93DF93E0E5F0E08081826080839E
:10115000818181FFFDCF88ED84BF81E080934000D5
:1011600045DA80E1E0E8F6E085832FEF87EA91E653
:10117000215080409040E1F700C0000020E030E2C4
:1011800040E060E083E390E2B3DB8EE390E2B6DD23
:10119000C3DD8091AE23843008F071C1BDDD809144
:1011A000AE238430D8F31092AE236BC1F0E0E0554B
:1011B000FC4D808164DDE091AE23EF5FE093AE23D0
:1011C000E430A0F38DE05BDD8AE059DD2FEF87EAA4
:1011D00091E6215080409040E1F700C000008091EE
:1011E000B023813309F017C18091B123823309F014
:1011F00012C18091B223833309F00DC18091B323D2
:10120000843309F008C1F2D9C0E8D6E010E11D83AB
:1012100020E030E240E060E08CE490E269DB88E5C9
:1012200090E26CDD1092AE238091AD238F5F8093AE
:10123000AD2336DD1D8320E030E242E165E086E645
:1012400090E256DB85E790E259DD8091AE23843051
:1012500008F019C161DD8091AE238430D8F310927B
:10126000AE2313C1F0E0E055FC4D808108DDE09134
:10127000AE23EF5FE093AE23E430A0F38DE0FFDC1C
:101280008AE0FDDC8091B023823309F090C0809128
:10129000B123833309F08BC08091B223843309F0EA
:1012A000F6C08091B323853309F0F1C09FD980E166
:1012B000E0E8F6E0858320E030E242E165E086E8A0
:1012C00090E216DB2FEF83EC99E0215080409040B4
:1012D000E1F700C0000082E990E210DD2FEF83EC1F
:1012E00099E0215080409040E1F700C0000010924A
:1012F000AE238091AD238F5F8093AD23D1DC2FEFA0
:1013000081EE94E0215080409040E1F700C0000061
:1013100017DFC8C08091B323873309F0BDC066D9F9
:1013200080E1E0E8F6E0858320E030E242E165E03C
:1013300082EB90E2DDDA2FEF83EC99E021508040E0
:101340009040E1F700C000008EEB90E2D7DC1092F5
:10135000AE238091AB238F5F8093AB23A1DCF0DEC3
:10136000A1C08091B323883311F540D980E1E0E832
:10137000F6E0858320E030E242E165E088ED90E22E
:10138000B7DA2FEF83EC99E0215080409040E1F7ED
:1013900000C0000084EE90E2B1DC1092AE23809198
:1013A000AA238F5F8093AA237BDCCADE7BC01ED971
:1013B00080E1E0E8F6E0858320E030E240E060E0B4
:1013C00084E091E295DA2FEF83EC99E021508040A0
:1013D0009040E1F700C0000084E091E28FDC06D984
:1013E00080E1E0E8F6E0858320E030E242E165E07C
:1013F0008EE191E27DDA2FEF83EC99E0215080407D
:101400009040E1F700C000008CE291E277DC10929E
:10141000AE2396DE47C0EAD880E1E0E8F6E08583B7
:1014200020E030E240E060E089E391E261DA2FEF12
:101430008FE493EC215080409040E1F700C0000021
:10144000D5D880E1E0E8F6E0858320E030E242E1B3
:1014500065E08EE491E24CDA2FEF87EA91E62150C5
:1014600080409040E1F700C0000089E391E246DC53
:101470008EE491E243DC1092AE2362DE13C0109240
:10148000AE23E0E093CE1092AE23E0E0EBCE80916D
:10149000B223843309F43ECF8091B223843309F020
:1014A00086CF5FCFDF91CF911F910895CF939ED8C4
:1014B000C0E1C09385068FE080938106109260069C
:1014C0008093200681E080934406B7DBC6DB8ED88C
:1014D000E0E8F6E0C58320E030E240E060E08BE544
:1014E00091E206DA2FEF81EE94E0215080409040A7
:1014F000E1F700C000008BE591E200DC88E3809317
:10150000880674D880E1E0E8F6E0858320E030E2E8
:1015100040E060E08CE691E2EBD98CE691E2EEDB14
:101520008091AC23BDDB20E030E240E060E089E464
:1015300090E2DED989E490E2E1DB20E030E240E0B5
:1015400060E080E891E2D4D980E891E2D7DB809135
:10155000AB23A6DB20E030E240E060E089E490E2EB
:10156000C7D989E490E2CADB20E030E240E060E0E5
:1015700084E991E2BDD984E991E2C0DB8091AA239C
:101580008FDB20E030E240E060E089E490E2B0D917
:1015900089E490E2B3DBD4DD80E090E0CF91089560
:0415A000F894FFCFED
:1015A40000FC010607207D320D0A00350D0A0038C3
:1015B4000D0A00300D0A00310D0A00340D0A0037FF
:1015C4000D0A002A0D0A00360D0A00390D0A0023FF
:1015D4000D0A00456E746572206B65793A00456E9C
:1015E400746572206B65793A200D0A004D6174634D
:1015F400686564206B6579004D6174636865642077
:101604006B65790D0A00656E746572207061737381
:10161400776F726400656E7465722070617373779E
:101624006F72640D0A0031737420706572736F6E8B
:1016340020004D6174636865642066697273742068
:10164400706572736F6E2070617373776F72640D5F
:101654000A00326E64204D617463686564005061F1
:101664007373776F7264207365636F6E64204D616A
:1016740074636865640D0A00337264206D61746379
:101684006865640050617373776F7264204D617490
:101694006368656420666F7220506572736F6E5F55
:1016A400330D0A0050617373776F72642044696468
:1016B4006E2774204D6174636865640D0A0054726A
:1016C4007920416761696E31210A0D0054727920D5
:1016D400416761696E210A0D006B65792064696454
:1016E400276E74206D6174636865640D0A0054721A
:1016F4007920616761696E210A0D007465737469EC
:101704006E67206B65797061640D0A00546865200A
:10171400757365725F3120656E74657265643D0032
:1017240054686520757365725F3220656E746572E6
:1017340065643D0054686520757365725F33206588
:081744006E74657265643D00DE
:00000001FF
